:020000040800F2
:10000000700E002079020008314A0008DF42000823
:10001000154A0008B1080008196500080000000032
:10002000000000000000000000000000154E000865
:10003000930C000800000000E94D00081159000869
:10004000930200089302000893020008930200083C
:10005000930200089302000893020008930200082C
:10006000930200089302000893020008D90B0008CD
:10007000930200089302000893020008930200080C
:100080009302000800000000950500089302000894
:1000900093020008930200089302000893020008EC
:1000A000895900089302000893020008930200088F
:1000B0009559000893020008930200089302000873
:1000C00093020008930200089302000893020008BC
:1000D00093020008930200080D65000893020008CF
:1000E000930200089302000893020008930200089C
:1000F0009302000893020008930200080000000029
:1001000000000000930200080000000093020008B5
:100110009302000800000000930200089302000808
:10012000930200089302000893020008930200085B
:100130009302000800000000000000009302000885
:100140009302000893020008000000000000000075
:10015000000000000000000000000000000000009F
:1001600000000000000000000000000093020008F2
:1001700093020008000000000000000000000000E2
:1001800000000000930200080000000000000000D2
:10019000000000000000000000000000000000005F
:1001A0000000000000000000930200089302000815
:1001B0009302000893020008930200080000000068
:1001C0000000000093020008000000000000000092
:1001D000930200089302000800F002F800F03CF8D7
:1001E0000AA090E8000C82448344AAF10107DA4592
:1001F00001D100F031F8AFF2090EBAE80F0013F0A8
:10020000010F18BFFB1A43F0010318478073000069
:10021000A0730000103A24BF78C878C1FAD85207FA
:1002200024BF30C830C144BF04680C607047000070
:100230000023002400250026103A28BF78C1FBD8EF
:10024000520728BF30C148BF0B6070471FB507F089
:1002500006F91FBD10B510BD00F06AF91146FFF791
:10026000F5FF06F0D5FC00F088F903B4FFF7F2FFC4
:1002700003BC06F021FC00000948804709480047FC
:10028000FEE7FEE7FEE7FEE7FEE7FEE7FEE7FEE746
:10029000FEE7FEE704480549054A064B70470000A3
:1002A00079590008D901000870080020700E00205C
:1002B000700A0020700A0020704753EA020C00F018
:1002C00069802DE9F04B4FF00006002B1FBFB3FAF9
:1002D00083F503FA05F424FA05F65E4012BF1643CF
:1002E000B2FA82F502FA05F4C5F120051EBF22FA22
:1002F00005FC44EA0C04203556EA044C4FEA144449
:1003000018BF641C4FF000084FF00009904271EBD9
:10031000030C39D3002919BFB1FA81F701FA07F6A6
:10032000B0FA80F700FA07F6C7F120071EBF20FADF
:1003300007FC46EA0C062037B6FBF4FCA7EB0507E2
:10034000103F07F01F0BCBF120060CFA0BFB2CFA29
:1003500006F644BFB3460026202FA4BF5E464FF0EA
:10036000000B5BEA060C08BF4FF0010B19EB0B0901
:10037000ABFB027C48EB0608C01B06FB02CC0BFB68
:1003800003CC71EB0C01C1E70B46024641464846DF
:10039000BDE8F08B13B54FF000004FF00001AFF354
:1003A0000080BDE81C407047032A40F2308010F006
:1003B000030C00F0158011F8013BBCF1020F624400
:1003C00098BF11F801CB00F8013B38BF11F8013B91
:1003D000A2F1040298BF00F801CB38BF00F8013B3E
:1003E00011F0030300F02580083AC0F0088051F8AE
:1003F000043B083A51F804CBA0E80810F5E7121DB9
:100400005CBF51F8043B40F8043BAFF30080D207D7
:1004100024BF11F8013B11F801CB48BF11F8012BA3
:1004200024BF00F8013B00F801CB48BF00F8012BC6
:10043000704710B5203AC0F00B80B1E81850203A50
:10044000A0E81850B1E81850A0E81850BFF4F5AF74
:100450005FEA027C24BFB1E81850A0E8185044BFFE
:1004600018C918C0BDE810405FEA827C24BF51F86B
:10047000043B40F8043B08BF7047D20728BF31F85F
:10048000023B48BF11F8012B28BF20F8023B48BFB0
:1004900000F8012B70474FF000020429C0F01280D1
:1004A00010F0030C00F01B80CCF1040CBCF1020F27
:1004B00018BF00F8012BA8BF20F8022BA1EB0C01FC
:1004C00000F00DB85FEAC17C24BF00F8012B00F8F2
:1004D000012B48BF00F8012B70474FF0000200B518
:1004E000134694469646203922BFA0E80C50A0E857
:1004F0000C50B1F12001BFF4F7AF090728BFA0E805
:100500000C5048BF0CC05DF804EB890028BF40F8D0
:10051000042B08BF704748BF20F8022B11F0804F12
:1005200018BF00F8012B704770477047704770473D
:10053000754600F02BF8AE4605006946534620F09C
:100540000700854618B020B5FFF7A4FEBDE820409F
:100550004FF000064FF000074FF000084FF0000B7F
:1005600021F00701AC46ACE8C009ACE8C009ACE832
:10057000C009ACE8C0098D46704710B50446AFF31A
:1005800000802046BDE81040FFF76FBE004870476E
:100590000C08002010B5044801F0F0F9BDE8104047
:1005A000024801F0EBB900004C000020B800002028
:1005B00070B50446006881688268C1F3400112F09A
:1005C000010F28D039BB816801F00D01012914D138
:1005D0008168124A1140891C8160216803200860EB
:1005E00001F022FF054612E001F01EFF401B022829
:1005F0000DD920688068C00709D0E06D40F0100078
:10060000E065206E40F001002066012070BD20688A
:100610008068C007E8D1002070BD0000C0FFFF7FE8
:10062000F8B50446002000902068816811F0010FA1
:1006300041D18168214A11422ED18168D543294098
:10064000491C81601E48806800F0E07000020DD5F2
:100650001C481D490068B0FBF1F0401C00EB400055
:10066000800000E0401E00900028FBD101F0DCFE7D
:1006700006461BE0816811F0010F03D18168294013
:10068000491C816001F0D0FE801B02280ED9206831
:100690000068C043C00709D0E06D40F01000E0657D
:1006A000206E40F0010020660120F8BD206801683E
:1006B000C943C907DED10020F8BD00003F0000801B
:1006C0000003005010000020400D03002DE9F04110
:1006D00004462DED068B90ED0EAB90ED108B53EC98
:1006E0001A2B51EC180B06F02BFC9FED361B53EC2C
:1006F000112B06F025FC41EC190B53EC182B51EC97
:10070000180B06F01DFC53EC1A2B06F019FC53ECE9
:100710001A2B06F015FC41EC180B06F0B3FA9FED0E
:100720002B0B0746206253EC102B51EC180B06F0F4
:1007300007FC0E4646EC100B054651EC100B06F07C
:10074000A1FAC4E9090753EC192B51EC180B06F078
:10075000CBFA9FED20AB53EC1A2B06F0C5FA06F04E
:1007600091FA46EC105B9FED1D1BE06253EC112BE0
:1007700051EC100B06F0B8FA06F084FA206353EC43
:10078000192B51EC180B06F00FFD53EC1A2B06F049
:10079000ABFA06F077FA60639FED120A002000BF03
:1007A00004EB8001401C81ED000A81ED030A03285F
:1007B000F6DB84ED060A84ED070ABDEC068BBDE886
:1007C000F0810000000000609EA0064000000000D4
:1007D0000000004000000000000010400000000089
:1007E000000020C00000000010B504462DED028B73
:1007F0005FF0020004EB8001401E11ED010A0028A9
:1008000081ED000A91ED020A81ED030AF2DC94ED1C
:10081000060A84ED000AD4ED080A60EE808A94EDA1
:10082000090AD4ED010A40EE208A94ED0A0AD4EDBB
:10083000020A40EE208A94ED0C0AD4ED040A20EE60
:10084000208A94ED0D0AD4ED050A00EE208A94ED7D
:100850000B0AB5EEC00AF1EE10FA11D0B0EE480A5C
:1008600006F0CAF860B9B0EE480A06F0B8F838B930
:1008700038EEC80AD4ED0B0A80EE201A84ED031A74
:1008800094ED030A06F0B8F820B994ED030A06F0D7
:10089000A6F840B19FED050A84ED030A84ED070A2E
:1008A000BDEC028B10BD94ED030AF7E700000000D9
:1008B000FEE7000010B504462DED028B40790428B8
:1008C00009D29FED1E0A84EDD00A84EDD10A84ED91
:1008D000F60A84EDF70A94EDF40AD4EDB50A94ED26
:1008E000F71A04F1E80060EE600A60EE818AD4ED48
:1008F000B40A20EE201AD4EDF60A21EE208A94EDF7
:10090000B81A00EE018A94EDD00A05F0C5FAD4EDCC
:10091000F70A94EDD10A04F5B07005F0BDFA94ED34
:10092000420A30EE280A84EDD20A94ED600A30EED5
:10093000080A84EDD30ABDEC028B10BD0000000054
:1009400070B5394D04462DED028B6878401CC0B25D
:1009500068706179042905D29FED340B84EDCE0BCC
:1009600084EDF00B94F8C81211FB01F1814217D805
:1009700094EDF00B51EC100B06F084F994EDCE0BD6
:1009800008EE100A51EC100B06F07CF900EE100A8C
:10099000F0EE480A04F5147005F07EFA0020687045
:1009A00094F8C8026978B1FBF0F200FB121038B974
:1009B000D4EDEE0A94ED9C0A04F5EC7005F06CFAA7
:1009C00094EDF40AD4EDB50A94EDF71A04F1E800B9
:1009D00060EE600A60EE818AD4EDB40A20EE201A3F
:1009E000D4EDF60A21EE208A94EDB81A00EE018AC1
:1009F00094EDD00A05F050FAD4EDF70A94ED7E0A92
:100A000004F5B07005F048FA94ED420A30EE280A79
:100A100084EDD20A94ED600A30EE080A84EDD30A20
:100A2000BDEC028B70BD000014000020000000002F
:100A30000000000070B5294D04462DED028B28788A
:100A4000401CC0B228706179042905D29FED240AA8
:100A500084EDCC0A84EDEE0A94F8C812814209D8DC
:100A6000D4EDEE0A94EDCC0A04F5EC7005F014FA1E
:100A70000020287094EDF40AD4EDB50A94EDF71A2D
:100A800004F1E80060EE600A60EE818AD4EDB40AF9
:100A900020EE201AD4EDF60A21EE208A94EDB81A41
:100AA00000EE018A94EDD00A05F0F6F9D4EDF70ACC
:100AB00094ED7E0A04F5B07005F0EEF994ED420A6B
:100AC00030EE280A84EDD20A94ED600A30EE080A6E
:100AD00084EDD30ABDEC028B70BD00001400002031
:100AE000000000004179042905D29FED030A80ED42
:100AF000D20A80EDD30A70470000000010B504460A
:100B00002DED028B002005F093FED4F8F813D4ED00
:100B1000FD0A401A00EE100A94F9F502B8EEC00A78
:100B200060EE200A00EE100A0120B8EEC00A20EEA6
:100B3000808A05F07DFED4F8FC13D4EDFD0A401A3E
:100B400000EE100A94F9F602B8EEC00A60EE200A30
:100B500000EE100A94F8F702B8EEC00A20EE800A00
:100B600078EE000AF1EE600A60B1012894F9EC0217
:100B70001DD001282DD000BFB0EE481A84EDF81A20
:100B80001DD01EE094F9EC0201280DD0B0EE401A01
:100B900084EDF81A01D0B0EE480A84EDF90AC4EDEC
:100BA000FA0ABDEC028B10BDB0EE481AF0E701283E
:100BB0000CD000BFB0EE601A84EDF81A01D0F0EE50
:100BC000480AC4EDF90A84EDFA0AEAE7B0EE481AD9
:100BD000F2E7B0EE601AD1E7014801F0EDB900008C
:100BE0005003002010B501680E4CCAB21423083A15
:100BF000A14203D2B2FBF3F20B4904E0B2FBF3F2E1
:100C000009492031921D436C02F01F0223F00303B7
:100C10001944816404498031C16401219140016516
:100C200010BD000008040240000802400179084A93
:100C300001F07F0102EB81024265054A4432491E00
:100C4000826501F01F0201219140C16570470000DB
:100C5000FC08024030B5D0E913456560446D14B11D
:100C6000D0E91645656090F8444004F01F05012462
:100C7000AC40056C6C60046863608368102B03688B
:100C800003D099600068C26030BD9A600068C1609E
:100C900030BD704772B6FEE7F8B5002604460096F0
:100CA00090F858000D4601280BD0012084F8580018
:100CB0002046FFF77DFC0100E06D04D040F01000FD
:100CC0002AE00220F8BD20F4885040F00200E065E0
:100CD00020688268134B1A4005F080431A4342F0A3
:100CE00000428260104A20680EE0009B5B1C00936B
:100CF000934209D3E06D20F0020040F01000E0655F
:100D000084F858600120F8BD8368DB0FEDD1E06DF9
:100D100020F0020040F00100E06584F858600846C9
:100D2000F8BD0000C0FFFF3F02DE04007047000076
:100D30002DE9F84F4FF000080446CDF800800D462D
:100D400094F85820DFF8EC93616947464046012A41
:100D50000AD00126F84A84F8586041B1296A01296D
:100D600005D0A36EEBB129E00220BDE8F88F6868DA
:100D7000092838D1A96A4FF4785041B12B6801F0A5
:100D80007C0100EA53400843E96A084302E029680D
:100D900000EA51402168CB6C13400343CB6460668A
:100DA00021E0C4E91971A96A286A31B101F07C0116
:100DB000401E0843E96A084300E0401E29682B7979
:100DC000C1F3846103F01F0399400143A06E401EEC
:100DD000A066636E43EA0103636604D12068C16CB8
:100DE00011401943C164206803F00AFB58B995F813
:100DF000250098B12068C16895F8262021F440119B
:100E000041EA4251C160206803F002FB824620683B
:100E100003F0F6FA5AEA00000DD0FBE095F8260040
:100E200095F82410400540EA01512068C26822F478
:100E300040121143E6E7A86A30B1E86A20B195F89C
:100E4000250001285ED003E095F82500012804D094
:100E50002068C16821F0007103E02068C16841F09A
:100E60000071C16095F83000012852D020680169F6
:100E700021F002010161AA6829682068B2F1004FDF
:100E800038D003F0E0FA2068416921F00041416167
:100E900020686969C268C2F3C102520091402A69A0
:100EA000042A44D000EB82002B68026EDFF88CC26B
:100EB00003F0F84302EA0C020B431A4342F00041EC
:100EC000016620682A69A96900EB8200026E22F09F
:100ED00080720A430266297F22682869012923D08B
:100EE0005FF0000102EB8000026E22F000720A4304
:100EF00002668FE0002203F0A6FA2068416941F003
:100F00000041C4E7E06D40F02000E0654FF00108CB
:100F1000A8E7D5E90D1001432068026922F4FF72A9
:100F200042F002021143A5E74FF00071DAE7002119
:100F300003F05CFA400320684FF0000172D003F028
:100F400055FA90FAA0F0B0FA80F1286842036ED00A
:100F500090FAA0F0B0FA80F0814204D1002211464C
:100F6000206803F087FA0121206803F03FFA40036C
:100F700020684FF001015DD003F038FA90FAA0F03C
:100F8000B0FA80F12868420359D090FAA0F0B0FA84
:100F900080F0814204D100220121206803F06AFA26
:100FA0000221206803F022FA400320684FF002017A
:100FB00048D003F01BFA90FAA0F0B0FA80F128684C
:100FC000420344D090FAA0F0B0FA80F0814204D1FC
:100FD00000220221206803F04DFA0321206803F06B
:100FE00005FA400320684FF0030133D003F0FEF907
:100FF00090FAA0F0B0FA80F1286842032FD090FA5E
:10100000A0F0B0FA80F0814204D1002203212068D0
:1010100003F030FA2068816811F0010F22D0B6E0A9
:1010200000E004E003F0E2F9C0F384618DE7C0F36F
:10103000846091E703F0DAF9C0F38461A2E7C0F3BA
:101040008460A6E703F0D2F9C0F38461B7E7C0F388
:101050008460BBE703F0CAF9C0F38461CCE7C0F356
:101060008460D0E72A7B296850F8B03FC1F3120CA6
:1010700023EA0C0302F0180C314A22FA0CF20A405F
:1010800013430360E96849457ED1286841031CD0B9
:1010900090FAA0F1B1FA81F1491C01F01F01092970
:1010A0004FEA403132D8002912D000BF90FAA0F1A7
:1010B000B1FA81F101F1010101F01F0106FA01F617
:1010C00009D100BFC0F3846109E0C0F38461E3E7A4
:1010D000C0F38461EEE790FAA0F1B1FA81F101F179
:1010E000010101F01F0146EA816102D1C0F3846071
:1010F00003E090FAA0F0B0FA80F000F1010000F0F7
:101100001F0000EB400041EA00513AE000290ED0F8
:1011100090FAA0F1B1FA81F101F1010101F01F0192
:1011200006FA01F60ED100BFC0F384610EE0C0F3F1
:101130008461F1E700007F400040100400F0FF03ED
:10114000FFFF070090FAA0F1B1FA81F101F101016E
:1011500001F01F0146EA816102D1C0F3846003E01F
:1011600090FAA0F0B0FA80F000F1010000F01F004A
:101170002B4A00EB400002EB005041EA000141F035
:101180000071AA68206800E001E003F05CF92548DE
:101190002A68024240D024488168244B01F0E07163
:1011A0009A4202D0224B9A421BD10B0219D42268D8
:1011B000B2F1A04F30D1826841F4000122F0E07218
:1011C0000A4382601B481C490068B0FBF1F0801C98
:1011D00000EB4000800000E0401E00900028FBD1A2
:1011E0001AE0164D164BAA4207D1CD0105D422684C
:1011F0009A4211D041F0807109E0124DAA420BD100
:101200004A0209D422689A4206D041F480018268D9
:1012100022F0E0720A43826084F858704046A4E5E8
:10122000000020FE0000088000030050000021C3E1
:101230001000C09010000020400D0300000052C7B5
:1012400000010050000084CB0068B0F1A04F05D130
:10125000034960200968086003F06ABF7047000016
:10126000B8000020704700002DE9F04104463548E1
:10127000806800F01F05206803F0C2F808BB2168F1
:10128000C868C96C00F0004011F4C07F00D190B173
:1012900094F85800012814D0012084F85800204602
:1012A000FFF7BEF902004FF000030CD084F858306D
:1012B0001046BDE8F081E06D40F02000E0650120BF
:1012C000F7E70220F5E7E06DC00504D5206E20F0B9
:1012D0000800206600E02366E06D42F201018843C9
:1012E00040F48050E065184F21684FF0A046B942A5
:1012F00001D1304600E00846884200D01DB9E06DBB
:1013000020F48010E0656020086084F85830206880
:10131000B84200D00646864209D045B1062D06D017
:10132000072D04D0E06D40F48010E065C0E7C1688F
:1013300011F0007FBCD18168044B194041F00801D5
:101340008160B5E70003005000010050C0FFFF7F3F
:101350002DE9F04104464548806800F01F052068EB
:1013600003F04EF808BB2168C868C96C00F0004063
:1013700011F4C07F00D190B194F85800012814D026
:10138000012084F858002046FFF74AF901004FF089
:1013900000020CD084F858200846BDE8F081E06DCA
:1013A00040F02000E0650120F7E70220F5E7E06D5E
:1013B000C00504D5206E20F00800206600E02266FB
:1013C000E06D42F20103984340F48050E065284B01
:1013D00020684FF0A046984201D1374600E007460A
:1013E000874200D01DB9E76D27F48017E7656027B5
:1013F000076084F858202068C268920203D54268CA
:1014000042F480624260A06908282068426807D0E0
:1014100022F0400242602068426842F0200206E06A
:1014200022F0200242602068426842F0400242609E
:101430002068984201D1324600E00246824209D03B
:1014400045B1062D06D0072D04D0E06D40F4801084
:10145000E065A1E7C26812F0007F9DD18268054B6C
:101460001A4042F00802826096E700000003005034
:1014700000010050C0FFFF7F704770472DE9F04723
:10148000044690F858009CB00E464FF00009012821
:1014900015D0012084F8580000251795189520686C
:1014A0004FF0A04840450ED1284F0097384602F033
:1014B000AFFF8246206802F0ABFF60B10EE0022071
:1014C0001CB0BDE8F087E06D40F02000E06584F8D6
:1014D00058500120F4E7BAF1000F09D0E06D40F058
:1014E0002000E0654FF0010984F858504846E7E7CE
:1014F0001748326840F61F71002A826822F4604261
:1015000016D094F8383042EA433273681A43826046
:10151000D8F80820BB6802F0010203F001031A4367
:10152000E2D1B36832681A4383688B431A430BE0F5
:101530008260D8F80820BB6802F0010203F00103C2
:101540001A43D1D182688A438260CDE700010050FE
:10155000000300502DE9F84F00270446009790F84B
:101560005800DFF8E0930D46B846012811D0012657
:1015700084F85860206802F047FF60B1E06D40F0E9
:101580002000E0655FF0010784F858803846BDE828
:10159000F88F0220FBE7D5E900210C23206803EA3D
:1015A00091131844036B01F01F014FF01F0C0CFA4C
:1015B00001FCC2F3846223EA0C038A4013430363F1
:1015C000206802F021FF8246206802F015FF5AEAE7
:1015D00000003CD1AA6829682068B2F1004F37D0DA
:1015E00002F022FF2068416921F00041416120683A
:1015F0006969C268C2F3C102520091402A69042A93
:1016000031D000EB82002B68026EDFF83CC303F0A0
:10161000F84302EA0C020B431A4342F00041016610
:1016200020682A69A96900EB8200026E22F08072AC
:101630000A430266297F22682869012910D0002107
:1016400002EB8000026E22F000720A4302667DE027
:10165000002202F0E9FE2068416941F00041C5E73F
:101660004FF00071ECE7002102F0BAFE4003206861
:101670004FF0000172D002F0B3FE90FAA0F0B0FA81
:1016800080F1286842036ED090FAA0F0B0FA80F0A2
:10169000814204D100221146206802F0E3FE0121BC
:1016A000206802F09DFE400320684FF001015DD0EC
:1016B00002F096FE90FAA0F0B0FA80F1286842039A
:1016C00059D090FAA0F0B0FA80F0814204D1002203
:1016D0000121206802F0C6FE0221206802F080FE8F
:1016E000400320684FF0020148D002F079FE90FAE2
:1016F000A0F0B0FA80F12868420344D090FAA0F03C
:10170000B0FA80F0814204D100220221206802F068
:10171000A9FE0321206802F063FE400320684FF019
:10172000030133D002F05CFE90FAA0F0B0FA80F131
:10173000286842032FD090FAA0F0B0FA80F08142DE
:1017400004D100220321206802F08CFE2068816809
:1017500011F0010F22D0ACE000E004E002F040FE06
:10176000C0F384618DE7C0F3846091E702F038FE36
:10177000C0F38461A2E7C0F38460A6E702F030FE04
:10178000C0F38461B7E7C0F38460BBE702F028FED2
:10179000C0F38461CCE7C0F38460D0E72A7B29687A
:1017A00050F8B03FC1F3120C23EA0C0302F0180CFE
:1017B000664A22FA0CF20A4013430360E96849457D
:1017C00077D1286841031CD090FAA0F1B1FA81F1D9
:1017D000491C01F01F0109294FEA403132D8002984
:1017E00012D000BF90FAA0F1B1FA81F101F101012C
:1017F00001F01F0106FA01F609D100BFC0F38461B0
:1018000009E0C0F38461E3E7C0F38461EEE790FA96
:10181000A0F1B1FA81F101F1010101F01F0146EAE5
:10182000816102D1C0F3846003E090FAA0F0B0FAC5
:1018300080F000F1010000F01F0000EB400041EAE1
:10184000005132E000290ED090FAA0F1B1FA81F1F6
:1018500001F1010101F01F0106FA01F606D100BFF6
:10186000C0F3846106E0C0F38461F1E790FAA0F16F
:10187000B1FA81F101F1010101F01F0146EA816134
:1018800002D1C0F3846003E090FAA0F0B0FA80F0D7
:1018900000F1010000F01F002D4A00EB400002EBB8
:1018A000005041EA000141F00071AA68206802F08E
:1018B000BBFD28482A6802423FF466AE264881688C
:1018C000264B01F0E0719A4202D0254B9A421CD17E
:1018D0000B021AD42268B2F1A04F7FF455AE826891
:1018E00041F4000122F0E0720A4382601D481E4963
:1018F0000068B0FBF1F0401C00EB4000800000E00D
:10190000401E00900028FBD13EE6184D184BAA421D
:1019100007D1CD0105D422689A42F5D041F08071FB
:1019200009E0144DAA42EFD14A02EDD422689A424E
:10193000EAD041F48001826822F0E0720A438260BA
:1019400022E6000000007F4000F0FF03FFFF0700D9
:10195000000020FE0000088000030050000021C3AA
:101960001000C09010000020400D0300000052C77E
:1019700000010050000084CB704770472DE9F05FF4
:101980000446006806684568DFF854B2DBF80800D2
:1019900000F01F07B0070ED5A8070CD5E06DC006F4
:1019A00003D4E06D40F40060E0652046FFF7BEF927
:1019B000216802200860DFF82CA270074FF0A048D1
:1019C00001D5680703D4300737D5280735D5E06D32
:1019D000C00603D4E06D40F40070E065206802F0BA
:1019E0001BFD20B32068504501D1424600E002466D
:1019F000824208D03FB1052F05D0092F03D05045B2
:101A000003D1414602E0C16801E00146C96889048A
:101A10000DD4016809070AD502F0F6FC58B3E06D51
:101A200040F01000E065206E40F001002066204686
:101A3000FFF7A2FF21680C200860B00601D5A806B8
:101A400003D4700658D5680656D5E06DC00603D499
:101A5000E06D40F40050E0652068C16C11F4C07F77
:101A60001AD00021894602F0D7FC02462068504572
:101A700014D1434613E02068416821F00C01416015
:101A8000E06D20F48070E065E06DC004CFD4E06DBF
:101A900040F00100E065CAE70121E3E70346834225
:101AA00008D03FB1062F05D0072F03D0504503D1F2
:101AB000414602E0C16801E00146C968B9F1000F82
:101AC00014D08B0102D58AB18A040FD40268520661
:101AD0000CD589020AD402F08FFCE8B3E06D40F027
:101AE0001000E065206E40F0010020662046FFF700
:101AF000ABFB21686020086030060BD5280609D5AD
:101B0000E06D40F48030E065204600F067F9216820
:101B100080200860F0050CD5E8050AD5E06D40F49A
:101B20000030E0652046FFF7A7FC21684FF4807085
:101B30000860B0050CD5A8050AD5E06D40F48020FA
:101B4000E0652046FFF799FC21684FF400700860BB
:101B5000F0062ED5E80600E008E02AD5E06BD0B10B
:101B6000AFB1DBF8080000F4604013E02068416882
:101B700021F060014160E06D20F48050E065E06D8F
:101B8000C005B3D4E06D40F00100E065AEE7206829
:101B9000C068C00750B1E06D40F48060E065206E21
:101BA00040F0020020662046FFF7E7FE2168102083
:101BB0000860700512D5680510D5E06D40F48040CE
:101BC000E065206E40F00800206621684FF48060D8
:101BD00008602046BDE8F05FFFF744BBBDE8F09F1A
:101BE0000003005000010050F8B54FF0000504005C
:101BF0002E46009502D0E06D10B107E00120F8BD3F
:101C0000204600F0EDF8266684F858602068816868
:101C1000C1F3407119B18168684A11408160206840
:101C20008168C1F3007189B98168654A114041F04A
:101C300080518160634864490068B0FBF1F0400066
:101C4000801C00E0401E00900028FBD120688168C5
:101C5000C1F3007141B9E16D41F01001E165216E00
:101C600041F001012166012502F0CEFBE16DC906BC
:101C700000D430B1E06D40F01000E0650125284649
:101C8000F8BDE06D20F4807040F00200E06520684F
:101C9000806810F0010F11D14FF0A04080684B49CF
:101CA00000F00100896801F00101084306D14848AD
:101CB0006168826822F47C120A438260E168E06B0A
:101CC000627F0843A16841EA4231084394F8241036
:101CD00040EA0140012904D1218D3E4A02EB4141F5
:101CE0000843E16A29B101F47871226B014342EAA9
:101CF00001002268D168384B19400143D160206847
:101D00000169626B21F0406111430161206802F0BA
:101D100073FB70BB207F94F83810800340EA4102C7
:101D20002168C86844F2020398431043C8602069E0
:101D30000028206801690AD041F4803101612068DF
:101D400050F8C01F22696FF30D01114307E021F421
:101D500080310161206850F8C01F6FF30D010160F0
:101D600094F8400001280CD02068016921F001019D
:101D70000161606901282068016B21F00F0111D019
:101D800013E0D4E911010843D4E9131211430843C5
:101D900021680A6940F2FC739A43104340F0010045
:101DA0000861E6E7226A521E11430163E06D20F0EC
:101DB000020040F00100E06561E70000C0FFFF5F46
:101DC000C0FFFF7F10000020400D03000001005005
:101DD000000300500000FEFF0740F0FF70470000C6
:101DE000F0B597B00446142111A8FEF776FB442104
:101DF0006846FEF772FB4FF40041206800268A0314
:101E00002E4D03272E4CB0F1A04F10D02D4B9842F1
:101E100052D10F926846009100F0DEFC08B1FEF747
:101E200039FF2868401C2860012825D02CE00F923B
:101E30006846009100F0D0FC08B1FEF72BFF28683F
:101E4000401C2860012807D1E06C40F40050E06499
:101E5000E06C00F400501690E06C40F00200E0648A
:101E6000E06C139600F0020016904FF4B040CDE9FC
:101E7000110711A9144815E0E06C40F40050E0642B
:101E8000E06C00F400501690E06C40F00400E06458
:101E9000E06C139600F0040016900820CDE91107BD
:101EA00011A90A4800F0A0F900221146122000F002
:101EB00021FB122000F010FB17B0F0BD0000002045
:101EC00000100240000100500004004800080048D3
:101ED00010B5002140B190F825300122022B05D029
:101EE0000421C163012124E0012010BD03681C68A6
:101EF00024F001041C6003681C6824F00E041C60BC
:101F0000836C1C6824F480741C6090F84430046C6A
:101F100003F01F0302FA03F36360D0E913345C603B
:101F2000436D33B11C6824F480741C60D0E916340E
:101F30005C6080F82520002280F82420084610BD2F
:101F400070B590F82520002401212346022A07D0ED
:101F50000422C26380F8251080F82430012429E08F
:101F60000268156825F0010515600268156825F0FE
:101F70000E051560826C156825F48075156090F863
:101F80004420056C02F01F0201FA02F26A60D0E9F7
:101F900013255560426D32B1156825F480751560C2
:101FA000D0E91625556080F8251080F82430816B23
:101FB00001B18847204670BDF0B4016C0C6801681F
:101FC0000D6890F8442002F01F06042202FA06F37E
:101FD000234211D06B070FD50B689B0603D40B6807
:101FE00023F004030B6090F8441001F01F018A40B5
:101FF000016C4A60016B1DE0022303FA06F72742D9
:102000004FF0000C4FF0010218D0AF0716D50C6846
:10201000A40605D40C6824F00A040C6080F825207E
:1020200090F8441001F01F018B40016C4B6080F868
:1020300024C0C16A00291AD0F0BC08470823B34065
:10204000234214D02B0712D50B6823F00E030B602C
:1020500090F84410036C01F01F0102FA01F159607D
:10206000C26380F8252080F824C0416BE2E7F0BC11
:102070007047000070B504000CD02C4A2168142071
:10208000914209D22A4A0A44B2FBF0F0800060640F
:1020900028480AE0012070BD244A52420A44B2FB9B
:1020A000F0F080006064214808382064022084F841
:1020B00025000A6847F6F0708243D4E9020318430A
:1020C000D4E904352B431843A3691843E369184343
:1020D000236A1843104308602046FEF783FDA0687A
:1020E0000025B0F5804F00D165602079A16C00F02B
:1020F0007F000860D4E9130141606068401E032836
:1021000008D82046FEF792FD606D0560D4E91601FF
:10211000416002E06565A565E565E563012084F839
:10212000250084F82450002070BD000008040240FF
:10213000F8FFFDBF0000024070B5044690F824008F
:10214000002501280CD0012084F8240094F8256093
:102150000020012E06D084F824000225284670BDF8
:10216000022070BD022684F82560E06320680668BE
:1021700026F0010606602046FEF76CFD206B002865
:102180002068016802D041F00E0106E021F0040150
:1021900001602068016841F00A010160A06C0168DB
:1021A000C90303D5016841F480710160606D18B105
:1021B000016841F4807101602068016841F001010B
:1021C0000160CBE770B5044600F02EF90546601CAF
:1021D00002D004484068044400F026F9401BA042A5
:1021E000FAD370BD040000202DE9F04FDFF80C9207
:1021F000002301260325A9F1040B85B00F2709F15F
:10220000040AABF1040EF1E006FA03FC12EA0C0238
:102210007ED00C7904F00304012C01D0022C20D1D3
:10222000846800945C0005FA04F80494009C24EA95
:1022300008040094D1F80C80049C08FA04F8009C6F
:1022400048EA0408C0F80880446824EA0C0491F8BD
:1022500004C0CCF3001C0CFA03FC4CEA040CC0F8DC
:1022600004C00C79E443A40702D18C68012C0ED081
:10227000C4684FEA430805FA08FC24EA0C04D1F8C4
:1022800008C00CFA08FC4CEA040CC0F80CC00C792D
:1022900004F00304022C16D1DC0800EB840CCDF80A
:1022A00008C0DCF820C05C074FEAD46807FA08F4DD
:1022B0002CEA040C0C6904FA08F444EA0C04DDF876
:1022C00008C0CCF8204004684FEA430805FA08FC2F
:1022D00024EA0C0491F804C00CF0030C0CFA08FC7E
:1022E0004CEA040CC0F800C04C6814F4403F7CD0A9
:1022F000434CD4F860C04CF0010CC4F860C0246EAC
:1023000023F0030C04F0010400943E4C644400E00C
:102310006BE00294A4684FEA837C4FEA1C7807FACA
:1023200008FC24EA0C04B0F1904F06D0DFF8D8C0C6
:10233000604505D14FF0010C20E04FF0000C1DE08E
:10234000DFF8C8C0604502D14FF0020C16E0DFF89C
:10235000C0C0604502D14FF0030C0FE0DFF8B4C0FD
:10236000604502D14FF0040C08E0DFF8ACC06045D6
:1023700002D14FF0050C01E04FF0060C0CFA08FCFE
:102380004CEA040C029CC4F808C0D9F80040CC46C2
:10239000D1F8048094435FEAC82800D51443CCF8F0
:1023A0000040DAF80040D446D1F8048094435FEA54
:1023B000882800D51443CCF80040DBF80040DC4608
:1023C000D1F8048094435FEA883800D51443CCF8F0
:1023D0000040DEF80040F446D1F8048094435FEA00
:1023E000C83800D51443CCF800405B1C0C6822466A
:1023F000DC407FF409AF05B0BDE8F08F0804014070
:10240000001002400000014000040048000800489D
:10241000000C004800100048001400480069084003
:1024200000D001207047000001488068704700001C
:1024300004000020024881684268114481607047AE
:102440000400002010B50024032000F073F80F20D2
:1024500000F008F808B1012401E000F025F820465A
:1024600010BD000070B50E4E05460024706898B18E
:102470004FF47A71B1FBF0F00A490968B1FBF0F052
:1024800000F038FE40B9102D06D200222946501E19
:1024900000F030F8356000E00124204670BD0000F7
:1024A00004000020100000200A4882B0016E41F0B4
:1024B00001010166016E01F001010091816D41F0A1
:1024C00080518165806D00F08050009002B000F076
:1024D0007BB9000000100240002809DB00F01F0259
:1024E000012191404009800000F1E020C0F8001176
:1024F00070470000F0B40E4B1B680C46C3F3022378
:10250000C3F10705042D00D90425191D072901D29F
:10251000002300E0DB1E012606FA05F1491E2140DA
:1025200099409E40761E16403143F0BC04F0B4BA88
:102530000CED00E0064900F0070208684FF6FF03C3
:10254000184040EA0220034A104308607047000028
:102550000CED00E00000FA05F8B504004FF00005AE
:1025600014D094F83A00052810D094F83A000228C4
:102570000CD03448016E41F001010166006E00F09C
:102580000100009094F83A0010B104E00120F8BD79
:10259000002084F83900204600F058F8A0682A4A44
:1025A0004FF48071402836D0602834D0206803680A
:1025B000E66A23F0100333430360D4E901031843B0
:1025C000D4E9033633431843237D012B00D0002187
:1025D0000843616A0843A16A0843218E40EAC1406A
:1025E00094F8341040EA01612068036813401943ED
:1025F000016020688169002909DBD4E906121143D2
:10260000226A836923F03F031A431143816194F8DE
:102610003A0090B114E020680368E66A23F01003E2
:1026200033430360D4E901031843267D2369012E57
:1026300000D000210B431843CBE7012084F83A0077
:102640002846F8BD00100240113E00E030B587B0CA
:10265000044614216846FDF740FF24681D4D002202
:102660001D4903234FF09040AC4209D1CC6C44F09B
:102670000104CC64C96C01F0010105910E210CE04C
:10268000144D2D1DAC4211D1CC6C44F00104CC642E
:10269000C96C01F001010591E021CDE9001302921E
:1026A0004FEA0D01FFF7A0FD07B030BD0948083023
:1026B0008442F9D1C86C40F00200C864C86C694615
:1026C00000F0020005900720CDE9000302920348C4
:1026D000E8E7000000030140001002400004004849
:1026E000002138B190F83A20052A03D090F83A201A
:1026F000012A02D00121084670470268136843F09E
:1027000001031360042280F83A20F4E72B492C4B94
:102710000A6832214A432B4940B1B0F5007F08686E
:1027200029D020F4C06040F480602CE00868C0F339
:102730004120022804D051F8800F20F4807022E05C
:10274000D1F8800020F48070C1F88000086820F47F
:10275000C06040F400700860B2FBF3F0401C00E081
:10276000401E4A69520501D50028F9D14869400543
:102770000AD503207047C0F34120022806D051F843
:10278000800F40F48070086000207047D1F880000E
:1027900040F48070C1F88000086820F4C06040F404
:1027A00000700860B2FBF3F0401C00E0401E4A6974
:1027B0005205DBD50028F9D1D8E700001000002031
:1027C00040420F00007000400248816841F480419F
:1027D00081607047007000402DE9F84304460068AE
:1027E00000269D4D00035ED5A86D0027C00008D4CB
:1027F000A86D40F08050A865A86D012700F08050BA
:102800000090DFF85892D9F8001041F48071C9F8AF
:102810000010FFF709FE804606E000BFFFF704FE48
:10282000A0EB080002282BD8D9F80000C005F5D588
:10283000D5F8900010F4407014D0216C814211D072
:10284000D5F89000D5F8901020F4407041F4803114
:10285000C5F89010D5F8901021F48031C5F890108B
:10286000C5F89000C00711D0FFF7DEFD804641F2A9
:10287000883907E0FFF7D8FDA0EB0801494501D9E9
:1028800003260BE0D5F890008007F3D5D5F890002B
:10289000216C20F440700843C5F890001FB1A86D6A
:1028A00020F08050A8652078C00707D0D5F88800B0
:1028B000616820F003000843C5F88800207880078D
:1028C00007D5D5F88800A16820F00C000843C5F8AA
:1028D00088002078400707D5D5F88800E16820F007
:1028E00030000843C5F888002078000707D5D5F8E0
:1028F0008800216920F0C0000843C5F888002078CE
:10290000800607D5D5F88800616920F44060084347
:10291000C5F888002078400607D5D5F88800A16959
:1029200020F440500843C5F888002078000607D5F9
:10293000D5F88800E16920F440400843C5F88800D4
:102940002088C00507D5D5F88800216A20F44030DA
:102950000843C5F888002088800507D5D5F8880089
:10296000616A20F440200843C5F8880020884005AB
:102970000FD5D5F88800A16A20F440100843C5F8A7
:102980008800A06AB0F5801F03D1E86840F4801089
:10299000E860208800050FD5D5F88800E16A20F4AA
:1029A00040000843C5F88800E06AB0F5800F03D105
:1029B000E86840F48010E8602088C0040FD5D5F89E
:1029C0008800216B20F040700843C5F88800206B18
:1029D000B0F1807F03D1E86840F48010E86020887F
:1029E0004FF0006180040ED5D5F88800626B20F0AE
:1029F00040601043C5F88800606B884203D1E868E6
:102A000040F48010E860208840040ED5D5F8880096
:102A1000A26B20F040601043C5F88800A06B88428C
:102A200003D1E86840F48010E860208800040FD5E6
:102A3000D5F88800E16B20F040500843C5F88800C5
:102A4000E06BB0F1805F03D1E86840F48030E8606B
:102A50003046BDE8F88300000010024000700040DE
:102A60002DE9F0470E4605004FF0000725D0DFF8AE
:102A7000AC81D8F8000000F00F00B0420CD2D8F8BA
:102A8000001021F00F013143C8F80010D8F8000001
:102A900000F00F00B04210D12968614CC80741F224
:102AA000883A5AD06868DFF87C91032808D0022859
:102AB00020682DD0400500282CDB0120BDE8F087E0
:102AC00020688001F9D5E06800F00302E068C0F3F7
:102AD0000310401C032A19D0534A00BFB2FBF0F088
:102AE000E268C2F306225043E268C2F34162521C1C
:102AF0005200B0FBF2F0484517D9A06810F0F00F73
:102B00000CD0880711D5A86840B10EE0474AE5E728
:102B10008003D0E700F0B6F8484506D9A06820F059
:102B2000F00040F08000A0608027A068696820F075
:102B300003000843A060FFF777FC814606E000BF72
:102B4000FFF772FCA0EB090151453AD8A06869680B
:102B500000F00C00B0EB810FF2D12868810714D58A
:102B6000400703D5A06840F4E060A0602878000723
:102B700005D5A06820F4605040F4E060A060A06833
:102B8000A96820F0F000084304E0802F03D1A0687A
:102B900020F0F000A060D8F80010404601F00F01CE
:102BA000B14216D9016821F00F0131430160FFF7EE
:102BB0003BFC074607E000BFFFF736FCC11B514551
:102BC00001D903207AE7D8F8000000F00F00B042E6
:102BD000F2D12878400705D5A068E96820F4E060C4
:102BE0000843A0602878000706D5A068296920F46A
:102BF000605040EAC100A06000F044F8A1680C4AAF
:102C0000C1F30311515C01F01F01C840094908607C
:102C100009480068BDE8F047FFF724BC00200240E7
:102C20000010024000B4C4040024F40000127A0032
:102C30009A7400081000002004000020054806498E
:102C400000688968054AC1F30221515C01F01F0147
:102C5000C84070471000002000100240AA7400080D
:102C60000548064900688968054AC1F3C221515CDC
:102C700001F01F01C8407047100000200010024002
:102C8000AA740008184910B58868C0F38102174873
:102C9000012A0BD08A684310C2F38102022A06D0AF
:102CA0008A68C2F38102032A03D0002010BD1846AF
:102CB00010BDCA6802F00304CA68C2F30312521CB2
:102CC000032C02D0B0FBF2F001E0B3FBF2F0CA68D3
:102CD000C968C2F306225043C1F34161491C49004F
:102CE000B0FBF1F010BD0000001002400024F40021
:102CF0002DE9F84304007AD02078F84DC00747D07A
:102D0000A868E96800F00C0001F003010C2802D06B
:102D1000082817D001E0032914D06068B0F5803F7F
:102D200017D0B0F5A02F286817D020F48030286085
:102D3000286820F4802028606068E0B1FFF774FB09
:102D4000064614E02868800322D560680028D2D0A7
:102D50001EE0286840F48030EDE740F480202860D1
:102D6000F7E700BFFFF760FB801B642870D8286876
:102D70008003F7D50CE0FFF757FB064605E000BFE0
:102D8000FFF752FB801B6428F0D828688003F7D433
:102D9000207880074CD5A868E96800F00C0001F0A5
:102DA00003010C2802D004280DD001E002290AD02A
:102DB000E068002828682BD040F480702860FFF776
:102DC00033FB064619E02868400502D5E068002874
:102DD00091D06868217C20F0FE4040EA0160686084
:102DE000BF480068FFF73EFB002800D120E072E1F9
:102DF000FFF71AFB801B0228B8D828684005F7D5D2
:102E00006868217C20F0FE4040EA016068600FE0C5
:102E100020F480702860FFF707FB064605E000BF3E
:102E2000FFF702FB801B0228A0D828684005F7D4D2
:102E30002078000729D560690028D5F8940013D0C0
:102E400040F00100C5F89400FFF7EEFA064606E0F0
:102E500090E000BFFFF7E8FA801B022886D8D5F87B
:102E600094008007F6D510E020F00100C5F894002A
:102E7000FFF7DAFA064604E0FFF7D6FA801B0228CD
:102E800078D8D5F894008007F6D42078400761D52B
:102E9000A86D0026C00008D4A86D40F08050A86539
:102EA000A86D012600F0805000908E480168C90589
:102EB00011D40168804641F480710160FFF7B4FAD3
:102EC000074604E0FFF7B0FAC01B022852D8D8F832
:102ED0000000C005F6D5A068012815D00528D5F852
:102EE000900016D020F00100C5F89000D5F89000B1
:102EF00020F00400C5F89000A06841F28838B8B10D
:102F0000FFF792FA07460EE0D5F8900040F0010076
:102F1000F0E740F00400C5F89000F5E7FFF784FA09
:102F2000C11B414526D8D5F890008007F6D50CE0A6
:102F3000FFF77AFA074604E0FFF776FAC11B41452E
:102F400018D8D5F890008007F6D41EB1A86D20F0EF
:102F50008050A8652078800629D5A0690028D5F87A
:102F6000980013D040F00100C5F89800FFF75CFA14
:102F7000064606E075E000BFFFF756FA801B022800
:102F80006FD8D5F898008007F6D510E020F0010042
:102F9000C5F89800FFF748FA064604E0FFF744FA40
:102FA000801B02285DD8D5F898008007F6D4E06928
:102FB000F0B3A968C1F3810103295DD00228286814
:102FC00020F08070286003D0FFF72EFA04464BE013
:102FD000FFF72AFA064604E0FFF726FA801B0228CC
:102FE0003FD828688001F7D4F4E908016FF00F0298
:102FF00002EB01110843218A5204490802EB4151B6
:10300000A26841EA02210843217D4FF07E4249082F
:1030100002EB41610843217B40EAC160E968324A22
:1030200011400843E860286840F08070286000E0A4
:103030005EE0E86840F08070E860FFF7F5F904466C
:1030400005E000BFFFF7F0F9001B022809D8286847
:103050008001F7D54CE000BFFFF7E6F9001B02281E
:1030600002D90320BDE8F88328688001F4D4E86819
:103070001E490840E8603BE00128F3D0E868226A76
:1030800000F00301914226D1616A00F0F0020901CB
:10309000103991421FD1A26A00F4FE41B1EB022F18
:1030A00019D194F82C2000F07841B1EBC26F12D105
:1030B000218E00F4C00249084905A1F50011914292
:1030C00009D194F8341000F0C06049084906A1F114
:1030D000007181420CD00120C4E7000000100240C2
:1030E00004000020007000400C809F01FCFFEEFEF9
:1030F0000020B7E710B5401EB0F1807F01D301205A
:1031000010BD4FF0E02460610F21601703F0C4FC94
:103110000020A06107202061002010BD704770478B
:103120007047000030B590F83C20012A42D00122BF
:1031300080F83C20CA688B6822F440721A434B68BE
:1031400022F480621A430B6822F400621A430B696E
:1031500022F480521A434B6922F400521A430B6B3B
:1031600022F480421A430B8B22F4702242EA03427B
:10317000CB6922F080521A430F4D03680024AB4202
:1031800002D00E4DAB4210D10D8D22F4700242EAF6
:1031900005520D6A22F080722A434D6A22F00072B5
:1031A0002A43C96A22F000520A435A6480F83C401C
:1031B000002030BD022030BD002C01400034014011
:1031C000F0B590F83C300027012B0BD0012380F89C
:1031D0003C301368042B23D006DC012B16D0022BC5
:1031E00006D118E00220F0BD082B1ED0102B21D0F4
:1031F0000024234626462546012920D0022931D025
:103200000127002180F83C103846F0BD012400263B
:1032100063020925F0E70224012663020A25EBE791
:103220000424022663020B25E6E708240326630232
:103230000C25E1E71024042663020D25DCE7D0F815
:1032400000E0DEF860C051689268B1402CEA040CDE
:10325000214041EA0C01AA4099431A400A43CEF8A2
:103260006020CEE7D0F800E0DEF864C051689268D4
:10327000B1402CEA040C214041EA0C01AA409943D8
:103280001A400A43CEF86420BBE770477047704786
:10329000F0B590F83C20012A3AD0012580F83C5046
:1032A000022280F83D2003685A689C68194E1A4F24
:1032B000B34201D0BB4204D122F4700C4A6842EA06
:1032C0000C02DFF858C002EA0C02D1F800C04CEA48
:1032D000020CC3F804C00268B2420DD0B2F1804FB4
:1032E0000AD00F4B9A4207D00E4B9A4204D0BA42F2
:1032F00002D00D4B9A4204D1896824F0800319430F
:10330000916080F83D50002180F83C100846F0BDE7
:103310000220F0BD002C0140003401408FFFFFFD72
:1033200000040040000800400040014010B5044681
:10333000022249B104290ED0082913D094F847007D
:10334000012816D0012010BD94F844000128F9D1BD
:1033500084F844200FE094F845000128F2D184F865
:10336000452008E094F846000128EBD184F8462077
:1033700001E084F847200422206802F07AFB2068EC
:10338000416C41F4004141641049206888420ED0EC
:10339000B0F1804F0BD00E49884208D00D498842C9
:1033A00005D00D49884202D00C49884207D1816876
:1033B0000B4A1140062906D0B1F5803F03D00168C1
:1033C00041F001010160002010BD0000002C01400F
:1033D000000400400008004000340140004001406B
:1033E00007000100704710B5040003D094F83D00B9
:1033F00010B107E0012010BD002084F83C002046F9
:1034000000F022F8022084F83D00211D206802F01F
:10341000C7FA012084F8480084F83E0084F83F0091
:1034200084F8400084F8410084F8420084F84300A6
:1034300084F8440084F8450084F8460084F8470086
:1034400084F83D00002010BD08B50068B0F1804F41
:1034500012D10A48816D41F001018165806D002221
:1034600000F00100009002211C20FFF743F8BDE8A6
:1034700008401C20FFF730B808BD000000100240D3
:1034800090F83D10012901D001207047022180F8F9
:103490003D100168CA6842F00102CA600068104924
:1034A00088420ED0B0F1804F0BD00E49884208D030
:1034B0000D49884205D00D49884202D00C49884206
:1034C00007D181680B4A1140062906D0B1F5803F2B
:1034D00003D0016841F00101016000207047000045
:1034E000002C01400004004000080040003401406E
:1034F000004001400700010070B5044690F83C0010
:103500000025012814D0012684F83C60022084F8AC
:103510003D0022689068364B184020F47F40906050
:10352000086870282ED010DC10F00F0F03D021E0B7
:103530004FF0020070BD4FEA2012072A1AD2DFE8CE
:1035400002F0525252524A3840002A4BC21A984254
:1035500049D009DCB0F5805F0DD0B0F5005F1CD01C
:10356000B0F1101F06D13EE0102A3CD0202A3AD0FC
:10357000502A38D0012584F83D60002084F83C00B2
:10358000284670BDCB68D1E90121206802F07EFA9F
:103590002068816841F0770109E0CB68D1E9012119
:1035A000206802F073FA2068816841F480418160EC
:1035B000E1E7CA684968206802F01CFC50212068D5
:1035C00006E0CA684968206802F042FC6021206871
:1035D00002F066FACFE7CA684968206802F00AFC80
:1035E00040212068F4E7226801461046F0E7000019
:1035F00088FFCEFF200010002DE9F0410D460400A9
:1036000003D094F83D0018B108E00120BDE8F08136
:10361000002084F83C00204600F042F8022084F8A4
:103620003D00206881681D4A11408160211D20688D
:1036300002F0B6F9226890689169166A2B68AF6942
:10364000034340F20330814341EA0721A868EF6950
:1036500008434FF6FC418843E96840EA07200143EC
:1036600028692F6A000140EA0730084369686D69DC
:1036700026F0AA0646EA0515294393602268906160
:1036800054F8480B0162012004F81F096075A07509
:10369000E076207720750020B8E70000F8BFFEFF35
:1036A00010B586B0044614216846FCF716FF114990
:1036B000206888421CD11048816D41F0020181656B
:1036C000816D01F002010591C16C41F00401C164FA
:1036D000C06C002100F004000590C0200090022082
:1036E000CDE90101CDE9031069460448FEF77CFDF0
:1036F00006B010BD00040040001002400008004861
:1037000070B590F83E60044690F83F5090F8443011
:1037100090F84520022021B104290ED0012E1BD1A2
:1037200014E0012E18D1012B16D184F83E0084F844
:10373000440001220021206820E0012D0CD1012A43
:103740000AD184F83F0084F8450014E0012D03D12C
:10375000012B01D1012A01D0012070BD84F83E0067
:1037600084F83F0084F8440084F8450001220021D9
:10377000206802F071F901220421206802F06CF93E
:103780002068016841F001010160002070BD7047B0
:103790002DE9F04104460068C66805694FF000074E
:1037A000A90713D5B10711D5F91E016101202077B2
:1037B000206880698007204602D0FFF7E8FF04E018
:1037C00000F002F9204600F0FFF92777680716D5C8
:1037D000700714D521686FF004000861022020777B
:1037E0002068806910F4407F204602D0FFF7CFFFA9
:1037F00004E000F0E9F8204600F0E6F92777280712
:1038000015D5300713D521686FF008000861042032
:1038100020772068C0698007204602D0FFF7B7FFF5
:1038200004E000F0D1F8204600F0CEF92777E80652
:1038300016D5F00614D521686FF010000861082035
:1038400020772068C06910F4407F204602D0FFF73F
:103850009EFF04E000F0B8F8204600F0B5F92777A5
:10386000E80708D0F00706D021686FF00100086172
:10387000204600F029FA280601D4A80408D530060D
:1038800006D521686FF4025008612046FFF747FC17
:10389000E80508D5300606D521686FF48070086108
:1038A0002046FFF73BFC680608D5700606D5216860
:1038B0006FF040000861204600F00DFAA80608D518
:1038C000B00606D521686FF0200008612046FFF79A
:1038D00027FCE80208D5F00206D521686FF48010B5
:1038E00008612046FFF7D2FCA80208D5B00206D531
:1038F00021686FF4001008612046FFF7C6FC6802DB
:1039000008D5700206D521686FF480000861204652
:10391000FFF7BDFC28020AD5300208D521686FF4F4
:10392000000008612046BDE8F041FFF75BBDBDE83F
:10393000F081000070B586B0044614216846FCF79B
:10394000CCFD1E492068884235D11D48C16C41F02C
:103950000201C164C16C01F002010591C16C41F02A
:103960000101C164C06C022400F0010005904FF415
:103970000050CDE90004134E0625029469463046F6
:10398000CDE90345FEF730FCA003CDE90004042097
:103990000294CDE9034069463046FEF725FC4FF41A
:1039A000B850CDE90004029469464FF09040CDE94B
:1039B0000345FEF719FC06B070BD0000002C014065
:1039C0000010024000040048704770B5044690F8AB
:1039D0003C0000260D4601280BD0012084F83C0055
:1039E0000C2A4AD007DC82B1042A20D0082A06D14A
:1039F00031E0022070BD102A53D0142A63D0012672
:103A0000002084F83C00304670BD206802F052F877
:103A10002068816941F0080181612068816921F095
:103A200004018161206881692A69114311E02068DD
:103A300002F092F82068816941F400618161206898
:103A4000816921F480618161206881692A6941EA84
:103A500002218161D4E7206802F0C8F82068C169BA
:103A600041F00801C1612068C16921F00401C16110
:103A70002068C1692A69114311E0206802F000F949
:103A80002068C16941F40061C1612068C16921F405
:103A90008061C1612068C1692A6941EA0221C1616E
:103AA000AEE7206802F036F92068016D41F00801A8
:103AB00001652068016D21F0040101652068016D38
:103AC0002A69114311E0206802F05CF92068016D59
:103AD00041F4006101652068016D21F48061016598
:103AE0002068016D2A6941EA0221016588E710B565
:103AF000040003D094F83D0010B107E0012010BD90
:103B0000002084F83C00204600F022F8022084F8CF
:103B10003D00211D206801F043FF012084F848008A
:103B200084F83E0084F83F0084F8400084F84100A7
:103B300084F8420084F8430084F8440084F8450087
:103B400084F8460084F8470084F83D00002010BD4A
:103B500010B586B0044614216846FCF7BEFC174930
:103B60002068884227D11648016E41F40061016641
:103B7000016E01F400610591C16C41F00401C16462
:103B8000C06C694600F0040005904FF400500090AE
:103B90001220019001200290002003900220049046
:103BA0000848FEF721FB002201211820FEF7A2FCA5
:103BB0001820FEF791FC06B010BD0000002C01405B
:103BC00000100240000800487047000030B504466D
:103BD000022269B1042912D0082917D00C291CD05F
:103BE000102921D094F84300012824D0012030BDB1
:103BF00094F83E000128F9D184F83E201DE094F8A5
:103C00003F000128F2D184F83F2016E094F84000EC
:103C10000128EBD184F840200FE094F841000128FE
:103C2000E4D184F8412008E094F842000128DDD175
:103C300084F8422001E084F843200122206801F04A
:103C40000BFF194B20681949194A984209D088423C
:103C500007D0904205D0174DA84202D0164DA84279
:103C600003D1456C45F400454564206898420CD06A
:103C7000B0F1804F09D0114B984206D0104B9842BA
:103C800003D0884201D0904207D181680D4A11408B
:103C9000062906D0B1F5803F03D0016841F001014B
:103CA0000160002030BD0000002C014000340140C4
:103CB0000040014000440140004801400004004031
:103CC00000080040070001000068B0F1804F01D1FA
:103CD00001F086BA7047704790F88410012918D017
:103CE000012180F884102421C0F8881001680A6836
:103CF0000B6823F001030B6022F0005100224266A2
:103D0000036819602021C0F8881080F884201046CC
:103D10007047022070477047704770B5044690F8AE
:103D2000840001281DD0012084F884002420C4F8D8
:103D3000880020680568026822F00102026020689D
:103D4000826822F060620A438260204602F0EEF848
:103D5000206805602020C4F88800002084F88400D2
:103D600070BD022070BD70B5044690F88400012833
:103D70001DD0012084F884002420C4F88800206825
:103D80000568026822F0010202602068826822F061
:103D900060420A438260204602F0C8F8206805604D
:103DA0002020C4F88800002084F8840070BD022020
:103DB00070BD70477047000010B5074A0168914216
:103DC00008D100F00DF80549C8608868401C88607B
:103DD0000020087010BD00000044004038000020A2
:103DE000D0F89000704700002DE9F04103680446C8
:103DF000D86919689A6840F60F0528424FF0000507
:103E00004FF002060AD187067ED501F0200702F0A6
:103E1000805C57EA0C0777D0616F42E1B64FDFF85C
:103E2000DCC2174001EA0C0C57EA0C0C6CD05FEABC
:103E3000C07C0CD05FEAC15C09D54FF0010CC3F81F
:103E400020C0D4F8903043F00103C4F890308307C9
:103E500009D5D30707D023681E62D4F8903043F009
:103E60000403C4F8903043070AD5D30708D0266866
:103E700004233362D4F8903043F00203C4F8903046
:103E800003070CD501F020033B4308D02668082324
:103E90003362D4F8903043F00803C4F8903003053F
:103EA0000BD54B0109D526684FF400633362D4F873
:103EB000903043F02003C4F89030D4F89030002BB9
:103EC0003DD0800609D501F0200002F08051084362
:103ED00003D0616F09B120468847D4F8900021686B
:103EE0008968490602D410F0280F2AD0204602F033
:103EF00047F92068806840061ED52068083050E8E1
:103F0000001F21F0400100E021E040E80012002AFB
:103F1000F3D1D4F8800078B179498163D4F8800076
:103F2000FEF70EF800280AD0D4F88000816B00E07C
:103F30002046BDE8F04108472046FFF73DFFBDE8B9
:103F4000F0812046FFF738FFC4F89050F7E7D4F827
:103F50006CC02027BCF1010F7ED15FEAC06C7BD51D
:103F60005FEAC16C78D5102018622068806840062E
:103F700051D5D4F880100A6850680004000C3ED077
:103F8000B4F85C3083423AD9A4F85E00086800684F
:103F900080062CD4216851E8000F20F4807041E89D
:103FA0000002002AF6D12068083050E8001F21F0F6
:103FB000010140E80012002AF5D12068083050E8DD
:103FC000001F21F0400140E80012002AF5D1C4F89A
:103FD0008C70E566216851E8000F20F0100041E880
:103FE0000002002AF6D1D4F88000FDF771FF2667A1
:103FF000B4F85C00B4F85E10401A81B207E0B4F87F
:104000005C1081429BD11068800698D526672046B7
:10401000FFF781FE93E7B4F85C00B4F85E10401A35
:1040200081B2B4F85E00002889D0002987D02268C8
:1040300052E8000F20F4907042E80003002BF6D104
:104040002D4BDB432068083050E8002F1A4040E831
:10405000002CBCF1000F00E00EE0F3D1C4F88C702E
:10406000E5666567206850E8002F22F0100240E8FE
:104070000023002BF6D1C9E7C60209D5560207D5A1
:104080004FF4801018622046BDE8F041FFF792BE61
:1040900003060AD501F0800302F40002134304D0A2
:1040A000A16F00297FF444AF49E7420611D54A06C3
:1040B0000FD52046016851E8002F22F0400241E868
:1040C0000023002BF6D1C0F88870856700F0F6F861
:1040D00035E7020206D54A0004D52046BDE8F04186
:1040E000FFF767BEC00195D5002993DA2046BDE8E9
:1040F000F041FFF711BE0000010000102001000494
:10410000E560000810B5040003D0D4F8880010B1B1
:1041100007E0012010BD002084F88400204600F054
:1041200027F82420C4F888002068016821F00101E4
:104130000160A06A10B1204601F01AFF204602F08B
:1041400061F80128E6D02068416821F4904141607F
:104150002068816821F02A0181602068016841F0AF
:10416000010101602046BDE8104001F065BF00007C
:1041700070B598B00646142111A8FCF7AEF9442199
:104180006846FCF7AAF924493068884242D10224E3
:104190000025684602950094FEF71EFB08B1FCF767
:1041A00079FD1E49886D40F400308865886D00F403
:1041B00000301690C86C40F00200C864C86C11A9A9
:1041C00000F002001690182081E831000720CDE9A8
:1041D00014501348FEF708F8134C124820601B20B7
:1041E00060601020C4E902058020C4E90405A561CF
:1041F000E56120462562FDF73DFF08B1FCF74AFD69
:10420000F467002203212620A662FEF773F9262018
:10421000FEF762F918B070BD004400400010024083
:1042200000040048080002405003002070B5044616
:10423000D0F88800202801D0022070BD39B332B3F5
:104240002165A4F85420A4F856200021C4F8901049
:104250002120C4F88800E06FD8B1154BC362E36F2A
:1042600014481863E36F14485863E06F1346816382
:104270002068E56F00F128022846216DFDF75CFFFC
:1042800038B11020C4F890002020C4F88800012024
:1042900070BD2168402008622068083050E8001F87
:1042A00041F0800140E80012002AF5D1002070BDE5
:1042B0003361000875610008EF6000080068054977
:1042C000884205D10448002101704168491C4160C1
:1042D0007047000000440040380000207047FEE7AF
:1042E0000349002008704FF47A7000F01DB80000F8
:1042F0002000002002788A4203D0017001218170E1
:104300000DE08178032904D2491CC9B281700329C8
:1043100005D34178914202D04270012A01D0002099
:10432000704701207047000040F62821884201DDD7
:10433000084602E0002800DA00200649C86000EEC6
:10434000100ADFED050AB8EEC00A20EE200A81ED62
:10435000040A7047200000205077D63D10B5FEF7C4
:1043600063F81B4C6169411A0A292FD3606104214B
:104370001848FEF753F80146601CFFF7BBFF18B161
:10438000207808B30020207040211348FEF746F83B
:1043900001460F48001DFFF7ADFF18B1E06864301B
:1043A000FFF7C2FF4FF400710C48FEF737F80146E3
:1043B0000748C01DFFF79EFF002807D0E068BDE852
:1043C00010406438FFF7B0BF0120DCE710BD0000EB
:1043D00020000020000C00480004004800080048AD
:1043E00000EB8100006E00F0F840704700EB8100A8
:1043F000006E00F0F84070478068C0F3C00070475E
:104400008068C0F3C00070478068C0F380007047C8
:104410008068C0F380007047C06810F4406F01D01E
:104420000020704701207047042303EAD15310B5E0
:1044300018444369C1F3045107248C40A3438A40C4
:104440001343436110BD042303EAD15310B518444C
:104450004369C1F3045107248C40A3438A401343AA
:10446000436110BD00EB8100016E21F0004111435A
:104470000166704700EB8100016E21F0004111439D
:1044800001667047704770477047704770477047C4
:104490007047704770477047704770477047704764
:1044A0007047704770477047704770477047704754
:1044B00070477047F0B59BB00024179418943C21C6
:1044C00068461994FCF709F820210FA8FCF705F8B5
:1044D00030484FF0A041042501604FF44031C0E95D
:1044E000011485610126C460C0E90446047744775D
:1044F0000221016280F82440C462046380F83840DD
:10450000C46380F84040FDF76FFB08B1FCF7C2FBC5
:1045100017A920481794FCF7B1FF08B1FCF7BAFBC4
:104520001D48009001A909207F2781E8C100CDE93D
:10453000045484200A908DF8244080208DF8254072
:104540000B9008968DF826408DF83040694611484A
:10455000FCF7EEFB08B1FCF79DFB10480F9010A98B
:10456000062081E8A100CDE913540FA90948FCF702
:10457000F1FF08B1FCF78EFB09480F900C2010905A
:104580000FA90448FCF7E6FF002801D0FCF782FBE6
:104590001BB0F0BD4C0000202000F0140040C03AD9
:1045A0000008302E70B590B03C216846FBF795FFAF
:1045B0001F481E49002401604FF44031C0E9011436
:1045C000C46004260461C0E90546047744770125E8
:1045D000056280F8244080F83840C46380F8404089
:1045E000FDF702FB08B1FCF755FB124800900920CB
:1045F000CDE901057F2008950594CDE903068420C7
:104600000A908DF8244080208DF825400B908DF87D
:1046100026408DF8304069460548FCF789FB0028A4
:1046200001D0FCF737FB10B070BD00000001005056
:10463000B80000200002B0250D4808B5816C41F09B
:1046400004018164816C01F004010091816C41F0EE
:1046500001018164806C002200F0010000900321C0
:104660000B20FDF747FFBDE808400B20FDF734BFE6
:104670000010024010B586B014216846FBF72DFFEC
:104680002248C16C41F00401C164C16C01F0040115
:104690000591C16C41F02001C164C16C01F02001A1
:1046A0000591C16C41F00101C164C16C01F00101CF
:1046B0000591C16C41F00201C164C16C01F00201BD
:1046C0000591C16C41F00801C164C06C002400F088
:1046D000080005904020CDE9000469460C4802948A
:1046E000FDF782FD4FF40070CDE9000469460948EA
:1046F0000294FDF779FD0420CDE9000469460648DF
:104700000294FDF771FD06B010BD000000100240DC
:104710000004004800080048000C00480B4810B591
:1047200009490160002141608160C160016101753A
:104730008161C162FDF710FF002803D0BDE8104081
:10474000FCF7A8BA10BD00000003014024010020BE
:104750000B4810B509490160002141608160C160CA
:10476000016101758161C162FDF7F6FE002803D089
:10477000BDE81040FCF78EBA10BD000004030140F4
:10478000600100200B4810B509490160002141601B
:104790008160C160016101758161C162FDF7DCFE6C
:1047A000002803D0BDE81040FCF774BA10BD00002B
:1047B000080301409C01002030B59BB000241494F4
:1047C00015941694179418941C2168461994FBF7B5
:1047D00084FE342107A8FBF780FE3D483B490125B4
:1047E000C0E900142021816041F29901C1604FF4B9
:1047F00080718461C0E90415FFF779F908B1FCF70D
:1048000049FA1494159414A931481694FEF740FD02
:1048100008B1FCF73FFA1795189517AA01212C4803
:104820001995FEF7CDFC08B1FCF734FA6020CDE90C
:1048300000040294039404940594002269462448D9
:104840000694FFF7C2F808B1FCF724FA042269467F
:104850001F48FFF7BAF808B1FCF71CFA08226946AE
:104860001B48FFF7B2F808B1FCF714FA702000906B
:1048700041F2980001900C2269461548FFF7A5F80F
:1048800008B1FCF707FA4FF4006007904010CDE93B
:10489000080455200A904FF480500B9040000C9073
:1048A0000420CDE90D04C005CDE90F401194129408
:1048B00007A907481394FEF735FC08B1FCF7EAF99D
:1048C0000348FFF737F81BB030BD0000002C014053
:1048D000D801002010B588B0002417480094019436
:1048E00002940394049405944FF08041069401606F
:1048F000A921C0E9011440F2E731C0E90314802185
:104900008161FEF770FD08B1FCF7C4F94FF48050E7
:10491000009069460848FEF7EFFD08B1FCF7BAF9C8
:10492000049404A904480694FEF7B2FC002801D0C0
:10493000FCF7B0F908B010BD2402002010B58CB00F
:1049400024216846FBF7C9FD0024174809940A94FE
:1049500014490B94C0E9001440F6FF71C0E902410C
:10496000046184610320CDE900040120CDE9020443
:104970000C210491CDE90540CDE9074169460A487B
:10498000FEF73AFE08B1FCF785F9099409A9064833
:104990000B94FEF77DFC002801D0FCF77BF90CB0EE
:1049A00010BD00000004004070020020184810B53F
:1049B000164901604FF4E1214160002181600C2221
:1049C000C160C0E904128161C1610162416281621A
:1049D000FFF798FB08B1FCF75DF900210C48FFF7E1
:1049E000C2F908B1FCF756F900210948FFF795F91B
:1049F00008B1FCF74FF90648FFF76EF9002803D01D
:104A0000BDE81040FCF746B910BD0000004400406E
:104A1000BC020020FEE700000178182903D20348F9
:104A200050F8210000470021017070471C750008F4
:104A3000FEE7000010B504462DED088B90ED160B37
:104A400090ED128B53EC102B51EC180B02F078FA0E
:104A500094ED109B41EC1A0B53EC192B51EC180BF5
:104A600002F06EFA94ED180B41EC180B53EC192B75
:104A700051EC100B02F064FA41EC190B51EC1A0BDB
:104A800002F000F960629FED22BBA06253EC1B2B89
:104A900051EC190B02F054FA02F0F4F89FED1EAB42
:104AA000E06253EC1A2B51EC190B02F049FA02F0B8
:104AB000E9F8206353EC1B2B51EC180B02F014F9AE
:104AC00002F0E0F8606353EC1A2B51EC180B02F083
:104AD0000BF902F0D7F8A0639FED110A002000BF88
:104AE00004EB8001401C81ED000A81ED020A81ED9A
:104AF000040A0228F4DB84ED060A84ED070A84ED3B
:104B0000080A002084F83C00BDEC088B10BD0000B2
:104B1000000000000000004000000000000000C095
:104B20000000000010B504462DED028B9FED518B67
:104B300090ED000A53EC182B80ED010A90ED020A6B
:104B400080ED030A90ED040A80ED050A90ED060A57
:104B5000D0ED070A30EE600A80ED000A90ED160BEA
:104B600051EC100B02F074F94AD094F83C00E0B11B
:104B700094ED030A84ED020AD4ED000A60EE800A87
:104B8000F5EEC00AF1EE10FA0DD3D4ED1C0AB4EE26
:104B9000E00AF1EE10FA33D2D4ED1D0AB4EEE00AC9
:104BA000F1EE10FA2CDD002028E094ED090AD4ED96
:104BB000000A94ED011A012020EE200AD4ED0A0A21
:104BC00000EE810AD4ED030AB0EE001A00EE810A6D
:104BD000F6EE000A20EE200A84ED020AD4ED1C0A4B
:104BE000B4EEE00AF1EE10FA06DCD4ED1D0AB4EEE4
:104BF000E00AF1EE10FA03D2C4ED020A84F83C0098
:104C000094ED180B53EC182B51EC100B02F020F91B
:104C100017D094ED0B0AD4ED000A94ED011A20EEA2
:104C2000200AD4ED0C0A00EE810AD4ED0E0A94EDB0
:104C3000051A00EEC10AD4ED0D0A80EE201A84EDAB
:104C4000041A94ED020AD4ED000A94ED141A00EE51
:104C5000810AD4ED040A30EE200A84ED080A94EDAE
:104C60001B1AD4ED1A0A01F0A3FE84ED080ABDEC6C
:104C7000028B10BD000000000000000010B50446CB
:104C80002DED048B90ED0C0B90ED081B53EC102BCD
:104C900051EC110B02F054F994ED0A9B9FED190BA6
:104CA00041EC180B53EC102B51EC190B02F048F9A6
:104CB00053EC182B02F018F801F0E4FF9FED130BF2
:104CC000E06053EC102B51EC190B02F039F953EC66
:104CD000182B02F009F801F0D5FF206100209FEDAC
:104CE0000D0A84F8380084ED000A84ED010A84ED91
:104CF000020A84ED060A84ED070A84ED050ABDEC7C
:104D0000048B10BD00000000000000400000000007
:104D1000000000C00000000010B504462DED088B17
:104D200090ED030AD0ED050A90ED001AD0ED018A4E
:104D300060EE200A90ED040A40EE010AB0EE000A8F
:104D4000B6EE001A48EE800A20EE818A80ED068ACF
:104D5000D0ED020A20EE800A10EE100A02F00EFBDF
:104D600041EC1B0B18EE900A02F008FB94ED089B37
:104D700053EC192B02F0E4F841EC1A0B18EE100A70
:104D800002F0FCFA53EC192B02F0DAF853EC1A2B70
:104D900001F0AAFF53EC1B2B01F0A6FF9FED101BA7
:104DA00053EC112B02F0CCF801F06CFF00EE100A6E
:104DB00084ED070A94F8380018B901F02BFE84ED51
:104DC000070A94ED050A84ED000A94ED060A84EDC5
:104DD000010A94ED070A84ED020ABDEC088B10BDB0
:104DE000000000000000E03F7047002100F8301F85
:104DF0004170802181707F21C17070477047000031
:104E000010B501F023FDBDE810400148FFF7F6BFE3
:104E1000B007002070470000F0B515462DED068B59
:104E2000B0EE619AF0EE419AF0EE601AA1B00E4633
:104E30000746BFEE001AF7EE000A01F0B9FDF0EEEA
:104E4000408ABFEE001AF7EE000AB0EE610A01F0E8
:104E5000AFFDB0EE408A28EEA80AB7EE00AA08EE31
:104E6000080A10EE100AB0F17E5F09DD01F0F4FDD2
:104E7000F0EE400A8AEE200A68EE808A28EE008A68
:104E8000482262496846FBF7D4FA6049202248313B
:104E900014A8FBF7CEFAF0EE491AB0EE691AF0EE5C
:104EA000480AB0EE680A13A912A801F0A3FE9DED0E
:104EB000130AB5EEC00AF1EE10FA01DD012100E09F
:104EC000002101F085FDF0EE400A9DED120A01F08F
:104ED0007FFD9FED4F1A20EE010AF4EEC00AF1EEBD
:104EE00010FA01DD012000E000209DED120AB5EE70
:104EF000C00AF1EE10FA01DD012200E00022890073
:104F000001EB4000104414A951F8204000EE104A73
:104F1000B8EEC00ADFED3F0A1DA91CA820EE200A4A
:104F200030EE608A01F026FE1FA91EA8B0EE480AE6
:104F300001F020FE06219DED1C0A9DED121ADDED0B
:104F40001D1ADDED130A20EE010A94FBF1F001EECB
:104F5000E00ADDED1F1A01FB104060EEA10ADDED55
:104F60001E1A00EB400268465DF8222041EE610AFD
:104F700001EE902A04EB440200EB8202F8EEE11A03
:104F80003AEE401A94FBF1F321EEA02A52ED031AF7
:104F900031EE601A01FB1343F8EEE11A03EB430311
:104FA00000EB830300EE212AF6EE001A01EE212A1F
:104FB00087ED002A93ED012A52ED022A94FBF1F3CA
:104FC000B8EEC22AF8EEE22A01FB134122EE202AB3
:104FD00001EB410100EB810000EE222A01EE212AC3
:104FE00086ED002A90ED022AB8EEC22A62EE200A6F
:104FF00012ED012AB8EEC22A40EE020A41EE210A61
:10500000C5ED000A21B0BDEC068BF0BDB4740008FC
:10501000D7B3DD3F920A863F10B5B0EE612AF0EEBD
:10502000412A00F558720446111FF0EE601AB0EEE6
:10503000401A081FF0EE420AB0EE620AFFF7ECFEDB
:1050400094F9ED02012802D0401C21D054E0B4F8BC
:10505000EE02D4EDD60A00EE100AB8EE400A20EEB9
:10506000800ABCEEC00A10EE101A00EE100AA4F876
:105070005013D4EDD70AB8EE400A20EE800ABCEEF9
:10508000C00A10EE101AA4F85213D4EDD80A27E083
:10509000D4EDD60AB7EE000AB4F8EE0230EE601A8C
:1050A00000EE900AF8EE600A61EE200AFCEEE00ADB
:1050B00010EE901AA4F85013D4EDD70A30EE601A0F
:1050C00000EE900AF8EE600A61EE200AFCEEE00ABB
:1050D00010EE901AA4F85213D4EDD80A70EE600ABC
:1050E00000EE100AB8EE400A20EE800ABCEEC00ABC
:1050F00010EE100AA4F8540394F9EC02401C07D1F6
:10510000B4F85003B4F85213A4F85013A4F852039F
:105110000648B4F85033B4F85223B4F85413046872
:10512000636303689A630068C16310BDD8010020FF
:1051300070B5264C0120264E6072E179002561B1E0
:10514000B078401CC0B2B070E571217A814202D2C1
:1051500015206071B570657270BDE0716079001FD7
:105160000F2805D2194800F06BF8184800F0E0F855
:105170006079132827D3F178884224D013489FED13
:10518000150A9FED151B84EDD20A84EDD30A84ED38
:10519000F50AC4F8F853C4F8FC5384EDD00A84ED42
:1051A000D10A84EDCC0A84EDCE1BD4EDBA0AC0EE50
:1051B000201AD4EDDA0A94EDD90AB0EE611AFFF79D
:1051C0002BFF6079F070E571C4E70000B0030020A8
:1051D000140000200000000000000000000000009B
:1051E000064810B5407A002807D1044800F08AFA32
:1051F000BDE81040014800F0D1B910BDB003002057
:1052000010B500F0DDF80C484079011F0F2904D2D9
:10521000BDE810400848FFF7F3BD13280BD3074C37
:105220002079401CC0B22071052804D90248FFF73C
:10523000E7FD0020207110BDB00300201400002005
:1052400010B504462DED028B01F068F984EDF20AE9
:10525000D4EDF50A94F9F402217970EE600A00EEBB
:10526000100A04F55E70B8EEC00A20EE800A00F065
:1052700019FE94EDE40A04F1A00000F009FE94ED9B
:105280002F0A84EDEE0A94EDE58A18EE100A02F07A
:1052900075F8C4E9F00194F8E40200EE100AB8EEE3
:1052A000400A28EE000A01F0B5FB84EDF30A94F8F9
:1052B000E40294EDEE1A00EE900A04F55A71081F0C
:1052C000F8EE600A61EE200AC4EDF40A01F052FC27
:1052D0002046FBF713FC04F57C71D4EDF90A94ED3C
:1052E000F80A081F01F0EAFB04F57771D4EDDA1A29
:1052F00094EDD91AD4EDFC0A94EDFB0A081F01F0D5
:10530000B3FC94EDF60A04F1100000F0C1FD94ED39
:10531000F70A04F1580000F0BBFD94ED0B0A84ED90
:10532000F60A94ED1D0A84EDF70ABDEC028B10BD60
:1053300010B5044617489FED160A174980EDD00AAC
:10534000097811B1154991ED000A80EDCC0A207958
:10535000042805D2124951F820102046884704E05D
:10536000002020712046FBF7BDFBD4EDD30A94ED5D
:10537000BA0A2046C0EE801AD4EDD20A80EE801A16
:10538000D4EDDA0A94EDD90ABDE81040FFF744BE27
:1053900000000000B00300202000002030000020AA
:1053A0007C75000890EDBA2AC0EE821AF7EE000A6A
:1053B00080EE021A9FED010AFFF72EBE00000000EA
:1053C00070B54B4C2DED028B607901287ED101F038
:1053D000BBF801F015F901F087F9204600F08EF8CE
:1053E00002206071254605F11000FBF76FF905F109
:1053F0005800FBF76BF905F1A000FBF767F905F121
:10540000E800FFF717FB05F5B070FFF713FB05F594
:10541000EC70FFF70FFB05F51470FFF70BFB04F5BD
:105420005E70FFF72BFC04F58060FFF7DEFC0320C5
:1054300060710025002001F0FBF9D4F8F81308444E
:10544000C4F8F803012001F0F3F9D4F8FC13084480
:10545000C4F8FC030220FCF7B5FE6D1CEDB2182D5C
:10546000E8D3D4F8F813182091FBF0F1C4F8F8133E
:10547000D4F8FC139FED208A91FBF0F0C4F8FC03F4
:1054800094EDBE0AD4EDBF0A1948B8EE400A20EEEA
:10549000200AD4EDC10A20EE200AD4EDC00A80EE25
:1054A000801ADFED140A84EDFD1A94EDBA0A20EE9D
:1054B000200AF0EE480AFFF775FF4FF47A70FCF708
:1054C00081FE01F02BF884EDF50A00E00CE0F0EE2F
:1054D000480AB0EE480A0648FFF764FF4FF44870E8
:1054E000FCF770FE04206071BDEC028B70BD000003
:1054F000B00300209A99993E0000000070B5044660
:105500002DED028B203490ED008A80EDBC8A18EEE0
:10551000100A01F033FFC4E90C0118EE100A01F083
:105520002DFFC4E91E0118EE100A01F027FFC4E99F
:10553000300118EE100A01F021FFC4E9440118EE11
:10554000100A01F01BFFC4E9620194F8A85200EEB2
:10555000105AB8EE400A28EE000A10EE100A01F0C8
:105560000DFF00EE105AC4E98001B8EE400A68EE63
:10557000000A00EE105AB8EE400A20EE800A10EE43
:10558000100A01F0FBFEC4E99E0118EE100A01F0BA
:10559000F5FEC4E9DE01BDEC028B70BDF0B4574AE4
:1055A000002102F1080395686D1C95604679172E5D
:1055B00003D004240E2E06D01DE0D0F82C23AA42DE
:1055C00056D2417153E0D0F81063B5FBF6F706FBF5
:1055D000175555B990EDDB0AD0EDC20AB4EEE00ADA
:1055E000F1EE10FA01DD4171196006EB860596684F
:1055F000B6EB450F7BD845790F2D18D1D0F8105355
:105600009668B6FBF5F705FB176656B990EDDB0A11
:10561000D0EDC30AB4EEE00AF1EE10FA01D2417106
:105620001960966805EB8505B6EB450F5FD845799F
:10563000102D18D1D0F81C539668B6FBF5F705FB72
:10564000176656B990EDDC0AD0EDC50AB4EEE00A53
:10565000F1EE10FA01DD41711960966805EB8505E0
:10566000B6EB450F43D84579112D02D01AE01960E9
:105670003FE0D0F81C539668B6FBF5F705FB1766BC
:1056800056B990EDDC0AD0EDC60AB4EEE00AF1EEB0
:1056900010FA01D241711960966805EB8505B6EBE9
:1056A000450F24D84579122D23D1D0F82853966878
:1056B000B6FBF5F705FB17669EB990EDF60AD0ED3F
:1056C000C80AB4EEE00AF1EE10FA08DC90EDF70A31
:1056D000D0EDC90AB4EEE00AF1EE10FA01DD417135
:1056E0001960926805EB8505B2EB450F01D944714D
:1056F000BDE7F0BC0248FFF78FB90000140000209E
:10570000B503002010B504462DED028B4079162814
:1057100001D0172801D000287DD016287BD017286B
:1057200079D0042877D3122813D094EDF60AD4ED5B
:10573000C80AB4EEE00AF1EE10FA08DC94EDF70ABC
:10574000D4EDC90AB4EEE00AF1EE10FA01DD122040
:1057500060716079A0F10E0107295CD321790129DC
:105760005CD0022973D0032955D19FED668B0D289B
:1057700029D094EDCE0B53EC182B51EC100B01F00B
:1057800013FD94EDF01B53EC112B01F09DFB14D293
:1057900094EDCE0BB0EE481AF0EE681A53EC112BD4
:1057A00051EC100B01F0A0FA94EDF01B53EC112B0F
:1057B00001F0C4FC01D20D206071207903282AD1A8
:1057C00060790B2816D094EDCE0B53EC182B51ECCE
:1057D000100B01F089FA94EDF01B53EC112B01F042
:1057E000ADFC01D20B2060712079032813D16079C0
:1057F0000C2810D094EDCE0B53EC182B51EC100B61
:1058000001F0D2FC94EDF01B53EC112B01F05CFB8A
:1058100001D20C206071BDEC028B10BD9FED3B0AE4
:10582000072817D0D4EDD10A94EDF71A70EEC01AFC
:10583000B4EEE11AF1EE10FA0ADD70EE800AB4EE71
:10584000E01AF1EE10FA03D20720607102E01FE0C7
:10585000052810D094EDD11AD4EDF70A31EE001AD4
:10586000F4EEC10AF1EE10FA02D20520607102E0F6
:10587000C0B20628CFD094EDD11AD4EDF70A31EE9C
:10588000400AF4EEC00AF1EE10FAC4DD0620C1E7CA
:10589000B1EE080A0A2816D0D4EDCC0A94EDEE1A1F
:1058A00070EEC01AB4EEE11AF1EE10FA09DD70EEF6
:1058B000800AB4EEE01AF1EE10FA02D20A2060710A
:1058C00001E0082810D094EDCC1AD4EDEE0A31EEA8
:1058D000001AF4EEC10AF1EE10FA02D2082060714B
:1058E00002E0C0B2092896D094EDCC1AD4EDEE0AAD
:1058F00031EE400AF4EEC00AF1EE10FA8BDD092019
:1059000088E70000000000000000F03FCDCC4C3ED6
:10591000FCF790BD10B594B038216846FAF7DDFD6C
:1059200014210EA8FAF7D9FD0020FCF7EFFE0120A4
:1059300000900004019002200324CDE907045521C2
:10594000CDE909010B900C900D906846FDF7D0F958
:1059500008B172B6FEE70F20CDE90E0400201090CA
:105960001190129004210EA8FDF77AF8002801D0BA
:1059700072B6FEE714B010BD0248016841F4700130
:105980000160704788ED00E00148FDF701BF0000AD
:10599000D80100200148FDF7FBBE000024020020D2
:1059A0002DE9F0430268254B254D264E264C4FF03D
:1059B0008049984207D0484505D0A84203D0B0425C
:1059C00001D0A04203D122F070074A683A431F4F2A
:1059D000DFF87CC0DFF87C8098420DD048450BD0C2
:1059E000A84209D0B04207D0A04205D0B84203D0A7
:1059F000604501D0404503D122F44075CA682A436E
:105A00004D6922F080022A438D68C5620D68856267
:105A1000984207D0A04205D0B84203D0604501D0DB
:105A2000404501D109690163016841F00401016049
:105A3000012141610260BDE8F0830000002C0140BB
:105A400000040040000800400034014000400140D4
:105A5000004401400048014010B501F01F0301213E
:105A6000046A99408C430462016A9A4011430162BE
:105A700010BD10B501F00F030421046A99408C4356
:105A80000462016A9A401143016210BD10B5846836
:105A900042EA032224F47F440A432243826010BD79
:105AA0008268034B1A400A4342F007018160704745
:105AB0008FFFCFFF2DE9F043056A026A22F0010251
:105AC0000262436882691E4C25F0020522400C6880
:105AD00022F0030214438A681B4E2A43194D1B4FC0
